:020000040800F2
:100000008004002005010008671600085515000847
:10001000651600086F070008371800080000000088
:100020000000000000000000000000006B16000847
:10003000E107000800000000691600086D160008BE
:100040001F0100081F0100081F0100081F01000810
:100050001F0100081F0100081F0100081F01000800
:100060001F0100081F0100081F0100081F010008F0
:100070001F0100081F0100081F0100081F010008E0
:100080001F0100081F0100081F0100081F010008D0
:100090001F0100081F0100081F0100081F010008C0
:1000A0001F0100081F0100081F010008C5160008F5
:1000B0001F0100081F0100081F0100081F010008A0
:1000C0001F0100081F0100081F0100081F01000890
:1000D0001F0100081F0100081F0100081F01000880
:1000E0001F0100081F0100081F010008DFF810D0E1
:1000F00000F00AFB00480047B1230008AFF300807E
:10010000800400200648804706480047FEE7FEE7D7
:10011000FEE7FEE7FEE7FEE7FEE7FEE7FEE7FEE7B7
:10012000C1160008ED000008202A04DB203A21FA5D
:1001300002F00021704721FA02F3D040C2F1200200
:100140009140084319467047D2B201E000F8012BF4
:10015000491EFBD270470022F6E710B513460A4647
:1001600004461946FFF7F0FF204610BD421C10F868
:10017000011B0029FBD1801A70472DE9FE4F81EA4F
:10018000030404F0004421F0004100944FF0000B00
:1001900023F0004350EA01045ED052EA03045BD02E
:1001A000C3F30A54C1F30A552C44A4F2F334019466
:1001B000A0FB0254C1F3130141F48011C3F31303F4
:1001C00043F4801301FB024400FB034E840A970AA8
:1001D00044EA815447EA8357A4FB076802958D0AD5
:1001E00005FB07854FEA932C04FB0C542705029D61
:1001F0004FEA065847EA1637B5EB08056EEB070CD1
:10020000870E920E47EA811742EA8312A7FB02018A
:10021000B6EB0B0164EB00042B0D43EA0C335E18C4
:1002200044EB1C50DA465146E7FB0201C5F31304C8
:100230004FEA0B3343EA14534FEA0432019C43EA7A
:100240000603A4F10C040294009CCDE900B400F074
:1002500036F903B0BDE8F08F00200146F9E72DE93B
:10026000F04D81EA030404F0004B21F000451446F0
:100270004FF0000A23F0004150EA050220D054EA72
:1002800001021DD0C5F30A570246C5F31303C1F39B
:100290001300C1F30A5640F4801543F48013A7EB12
:1002A0000608101BD64608F2FD3873EB050002D392
:1002B00008F1010801E092185B41B8F1000F03DA80
:1002C00000200146BDE8F08D00204FF48011064665
:1002D00084460EE0171B73EB050705D3121B63EB77
:1002E000050306434CEA010C49084FEA3000921816
:1002F0005B4150EA0107EDD152EA030012D082EAD5
:10030000040083EA0501084305D0101BAB4106D267
:100310000122002306E000224FF0004302E06FF0CC
:10032000010253101AEB06004CEB085110EB0A00C7
:1003300041EB0B01BDE8F04D00F0B2B8962300226E
:10034000114600F07FB800F0004230F000400AD0C3
:10035000C10D01F56071C0F3160042EA0151C208F7
:1003600040071143704700200146704701F00043E9
:1003700030B421F0004150EA010206D00A0DA2F586
:100380006072C1F31301002A02DC30BC0020704708
:10039000440F44EAC104C100E01830BC00EBC25075
:1003A00000F047B830B50B4601460020202201245A
:1003B00009E021FA02F59D4205D303FA02F5491B33
:1003C00004FA02F52844151EA2F10102F1DC30BD49
:1003D0002DE9F05F0546002092469B46884606467A
:1003E000814640241BE02846414647462246FFF707
:1003F0009BFE53465A46C01A914110D311461846E7
:10040000224600F093F92D1A67EB01084F46224669
:100410000120002100F08AF917EB00094E41201E4F
:10042000A4F10104DFDC484631462A464346BDE8D4
:10043000F09F0029A8BF7047401C490008BF20F06A
:100440000100704710B4B0FA80FC00FA0CF050EADA
:10045000010404BF10BC704749B1CCF1200421FA5B
:1004600004F411FA0CF118BF012121430843A3EB56
:100470000C01CB1D4FEA00614FEA102042BF002063
:1004800010BC704700EBC35010440029A4BF10BC3F
:100490007047401C490008BF20F0010010BC7047A5
:1004A00010B5141E73F1000408DA401C41F100017C
:1004B00092185B411A4301D120F0010010BD2DE9D3
:1004C000F04D92469B4611B1B1FA81F202E0B0FACA
:1004D00080F22032904600F029F904460F4640EAA7
:1004E0000A0041EA0B0153465A46084313D011460D
:1004F00053EA010019D0C8F140025046FFF714FE3C
:1005000005460E4650465946424600F00FF908434C
:1005100005D0012004E020463946BDE8F08D0020DA
:10052000054346EAE0762C4337430A986305E40A1C
:10053000A0EB08000022FD0A44EA47540A3002D525
:1005400000200146E9E7010510196941DDE9084588
:1005500000196941BDE8F04DA2E72DE9FE4F804644
:1005600081EA0300C00F0C46009021F0004123F007
:100570000045B8EB0200A94105D24046214690460D
:100580001C460B46024623F00040104347D0270D7F
:10059000C7F30A00C3F30A510290401A01904028A1
:1005A0006BDAC3F3130040F4801B0098924620B12D
:1005B0000023D2EB030A63EB0B0B01985946C0F101
:1005C0004002504600F0B2F806460D4650465946E5
:1005D000019A00F0BAF810EB08006141002487EAA4
:1005E000115284EAE7731A4340D0009A62B3019A29
:1005F000012A4FEA075215DC001B61EB02014FF0A4
:10060000004202EA0752CDE90042001C41F5801188
:1006100032462B46FFF753FF03B0BDE8F08F40464C
:100620002146F9E7001B61EB0201001C41F5801334
:1006300000185B412018A2F5001747EB030140EAC0
:10064000D570B6196D4111E06D084FEA360645EADE
:10065000C0754FEA0752001B61EB0201001C41F517
:10066000801149084FEA30000019514132462B46AB
:1006700003B0BDE8F04FFFF713BF00980122400020
:100680000023D0EB020263EBE073009821464FEAAF
:10069000E074B8EB000061EB0401E9E783F000438C
:1006A0005BE781F0004158E7C1F30A52C1F313013F
:1006B00040F2FF3341F480119A4202DA00200146F1
:1006C000704740F233439A42A2F2334202DC524274
:1006D000FFF72ABD00F02AB830B5041E71F10004FE
:1006E00004DB4FF00044404264EB0101141E73F13F
:1006F000000405DB1C464FF00043524263EB040349
:10070000994208BF904230BD064C074D06E0E068B4
:1007100040F0010394E8070098471034AC42F6D348
:10072000FFF7E8FCE824000808250008202A04DB7D
:10073000203A00FA02F1002070479140C2F12003F4
:1007400020FA03F3194390407047202A06DBCB17A9
:10075000203A41FA02F043EAE07306E041FA02F37C
:10076000D040C2F120029140084319467047FEE78D
:100770000E48016821F080710160016841F08071CC
:1007800001600B48016821F001010160016841F03E
:10079000010101600021416000BF00BF00BF40684F
:1007A00008B100207047012070470000FCED00E018
:1007B000001000E031B5084D6C6800F053FA0749AD
:1007C000B0FBF1F000994843009068680099001B65
:1007D0008842FAD338BD0000001000E040420F000C
:1007E0007047000070B5044600F008F90546601C2B
:1007F00002D004480078044400F000F9401BA042F5
:10080000FAD370BD280000202DE9F84FDFF8B89129
:10081000002409F1040A0AF1040B23460F270BF107
:10082000040EC9E00125A5402A40AA427DD1674EA9
:10083000D1F804C0ACEB0608B44532D014DCBCF1EE
:10084000030F3AD009DCBCF1000F2AD0BCF1010F34
:100850001CD0BCF1020F31D11DE0BCF1110F17D03B
:10086000BCF1120F2AD119E0B8F5881F19D006DCA7
:10087000B8F5803F15D0B8F5801F1FD111E0B8F54D
:10088000001F0ED0B8F5041F18D10AE0CB6815E0A0
:10089000CB681B1D12E0CB6808330FE0CB680C332C
:1008A0000CE08B682BB1012B4FF0080303D045619E
:1008B00004E0042302E0056100E00023FF2A01D8E0
:1008C000064601E000F104064FEA840501D9A5F1CE
:1008D0002005D6F8008007FA05FC28EA0C0803FA80
:1008E00005F548EA0508C6F800804D68ED0062D5B8
:1008F000374DAE6946F00106AE61AD6924F00306DE
:1009000005F001050095334D06EB050CDCF80850A9
:10091000A607360F07FA06F825EA0805DFF8B880BB
:10092000404503D14FF0000817E044E0DFF8AC8009
:10093000404502D14FF001080FE0DFF8A4804045A8
:1009400002D14FF0020808E0DFF89880404502D15C
:100950004FF0030801E04FF0040808FA06F848EAEF
:100960000508CCF808804D68D9F80060ED034D46C5
:1009700001D5164300E096432E604D68DAF800601A
:10098000AD03554601D5164300E096432E604D68F1
:10099000DBF80060ED025D4601D5164300E09643AA
:1009A0002E604D68DEF80060AD02754601D5164335
:1009B00000E096432E60641C0D682A46E5407FF4F3
:1009C00031AFBDE8F88F00000004014000001110B5
:1009D000001002400000014000080140000C0140EE
:1009E00000100140001401408068084000D0012040
:1009F00070470AB1016170470904FBE7014880684C
:100A000070470000280000200248816802781144E5
:100A10008160704728000020074810B5016841F048
:100A200010010160032000F075F8002000F006F8C6
:100A300000F024F8002010BD0020024070B50D4DDC
:100A400004464FF47A712878B1FBF0F00A4909683E
:100A5000B1FBF0F000F0D2FA48B9102C07D2002216
:100A60002146501E00F036F800206C6070BD012059
:100A700070BD000028000020340000200C4808B59C
:100A8000816941F001018161816901F001010091F9
:100A9000C16941F08051C161C06900F0805000908F
:100AA0000448416821F0E06141F00071416008BDF7
:100AB0000010024000000140002809DB00F01F0286
:100AC000012191404009800000F1E020C0F80011B0
:100AD00070470000F0B40E4B1B680C46C3F30223B2
:100AE000C3F10705042D00D90425191D072901D2DA
:100AF000002300E0DB1E012606FA05F1491E214015
:100B000099409E40761E16403143F0BC00F0A6BED0
:100B10000CED00E0064900F0070208684FF6FF03FD
:100B2000184040EA0220034A104308607047000062
:100B30000CED00E00000FA052DE9F0470F46050036
:100B400061D0434E306800F00700B84209D23068E7
:100B500020F0070038433060306800F00700B842EA
:100B600051D128683B4C810712D5400703D56068F6
:100B700040F4E06060602878000703D5606840F4C6
:100B8000605060606068A96820F0F0000843606011
:100B90002878C00728D06868012810D0216802286A
:100BA00010D0890700292EDA616821F00301014382
:100BB0006160FFF723FF804641F288390DE021682C
:100BC0008903EFE78901EDE7FFF718FFA0EB0801C4
:100BD000494502D90320BDE8F0876068696800F0E4
:100BE0000C00B0EB810FEFD1306800F00700B84285
:100BF0000BD9306820F0070038433060306800F0CF
:100C00000700B84201D00120E5E72878400705D564
:100C10006068E96820F4E0600843606028780007B5
:100C200006D56068296920F4605040EAC100606020
:100C300000F01EF86168084AC1F30311515CC84016
:100C40000649086006480068FFF7F8FE0020C2E782
:100C50000020024000100240D82400083400002088
:100C60002C0000200148006870470000340000207C
:100C700012A185B00FC98DE80F0014A0144A0068B6
:100C800004905168134801F00C03042B10D0082B7A
:100C90000ED1C1F38343C9031DF803000AD551687F
:100CA00004AAC1F34041515C0A4A5043B0FBF1F041
:100CB00005B0704708494843FAE7000002030405FD
:100CC000060708090A0B0C0D0E0F10100102000098
:100CD0000010024000127A0000093D002DE9F84F93
:100CE000040070D02078C04DC00749D06868C0F3B8
:100CF0008100012807D06868C0F38100022809D16B
:100D00006868C00306D52868800339D56068002864
:100D1000E7D035E06068B0F5803F0BD010B1B0F59A
:100D2000A02F11D0286820F480302860286820F493
:100D3000802002E0286840F480302860606890B12C
:100D4000FFF75CFE06460AE0286840F48020286031
:100D5000F0E700BFFFF752FE801B642873D82868B5
:100D60008003F7D50CE0FFF749FE064605E000BF1B
:100D7000FFF744FE801B6428F0D828688003F7D46E
:100D800020789A4E80074FF001094FF0000839D5BE
:100D9000686810F00C0F07D06868C0F38100022863
:100DA00009D16868C00306D42868800714D5206973
:100DB000012808D110E02069B0B1C6F80090FFF713
:100DC0001DFE074605E00AE1FFF718FEC01B0228DA
:100DD000C4D828688007F7D52868616920F0F80032
:100DE00040EAC10028600DE0C6F80080FFF706FE6B
:100DF000074604E0FFF702FEC01B022823D828683C
:100E00008007F7D4207800072CD57948A169D9B19B
:100E1000C0F80090FFF7F2FD074604E0FFF7EEFD93
:100E2000C01B02280FD8686A8007F7D571484FF4B5
:100E3000FA510068B0FBF1F0009000BF0098411E2D
:100E40000091FAD20EE080E0C0F80080FFF7D6FDF6
:100E5000074604E0FFF7D2FDC01B022875D8686A78
:100E60008007F7D42078400760D5E8690027C000E4
:100E700008D4E86940F08050E861E869012700F093
:100E8000805000905C480168C90513D4016883460E
:100E900041F480710160FFF7B1FD824606E000BFBA
:100EA000FFF7ACFDA0EB0A0064284ED8DBF8000089
:100EB000C005F5D5E06801280AD008B1052813D08F
:100EC000286A20F001002862286A20F0040002E06D
:100ED000286A40F001002862E06841F2883B98B13E
:100EE000FFF78CFD82460BE0286A40F00400286280
:100EF000EEE700BFFFF782FDA0EB0A0159455AD883
:100F0000286A8007F6D50CE0FFF778FD824605E0F9
:100F1000FFF774FDA0EB0A0159454CD8286A8007F9
:100F2000F6D41FB1E86920F08050E861E06988B329
:100F30006968C1F38101022944D00228C6F86080A3
:100F400004D0FFF75BFD044638E034E0FFF756FDC0
:100F5000074604E0FFF752FDC01B02282BD8286883
:100F60008001F7D4206AB0F5803F05D16868A16898
:100F700020F4003008436860D4E908010843696838
:100F800021F4741108436860C6F86090FFF736FDDD
:100F9000044606E025E000BFFFF730FD001B0228F5
:100FA00009D828688001F7D51BE000BFFFF726FDB0
:100FB000001B022802D90320BDE8F88F28688001B1
:100FC000F4D40EE00128F7D06868226A00F480317A
:100FD000914204D1616A00F47010884201D001206E
:100FE000EAE70020E8E7000000100240000042426B
:100FF00080044242340000200070004010B5401EC2
:10100000B0F1807F01D3012010BD4FF0E02460617A
:101010000F21601700F022FC0020A0610720206152
:10102000002010BD7047704770B590F83C20012A31
:1010300026D0012480F83C40022280F83D2003683D
:101040005A689D6822F070060A6832435A600D4B58
:1010500002689A4208D0B2F1804F05D00A4B9A42FA
:1010600002D00A4B9A4204D1496825F08003194303
:10107000916080F83D40002180F83C10084670BD2A
:10108000022070BD002C0140000400400008004018
:1010900010B5040003D094F83D0010B107E0012022
:1010A00010BD002084F83C00204600F01FF802200C
:1010B00084F83D00211D206800F00AFB012084F81F
:1010C000460084F83E0084F83F0084F8400084F82D
:1010D000410084F8420084F8430084F8440084F816
:1010E000450084F83D00002010BD000000B585B02B
:1010F00000210091019102910391006812498842F8
:101100001FD11248816941F400618161816901F454
:1011100000610491816941F004018161806969463F
:1011200000F0040004904FF4807000900848FFF72E
:101130006BFB002211461B20FFF7CCFC1B20FFF7A6
:10114000BBFC05B000BD0000002C014000100240B7
:101150000008014090F83D10012901D0012070479E
:10116000022180F83D1000680B49884208D0B0F198
:10117000804F05D00949884202D00949884204D1EC
:10118000816801F00701062903D0016841F00101DF
:101190000160002070470000002C01400004004066
:1011A0000008004070B5044690F83C00012817D0B4
:1011B000012584F83C50022084F83D0020688268B4
:1011C00022F0770222F47F4282600868502830D0F3
:1011D0000DDC20284DD005DC98B310283BD148E029
:1011E000022070BD302844D0402834D139E0602836
:1011F00028D0702806D0B0F5805F2CD0B0F5005F05
:1012000029D10AE0CB68D1E90121206800F096FAE3
:101210002068816841F0770109E0CB68D1E90121BC
:10122000206800F08BFA2068816841F48041816079
:1012300011E0CA684968206800F092FA50212068DD
:1012400007E016E0CA684968206800F0C7FA602124
:10125000206800F07DFA84F83D50002084F83C00BE
:1012600070BDCA684968206800F07AFA4021206899
:10127000EFE7226801461046EBE770472DE9F041A1
:10128000054690F83C000C46012836D0012085F830
:101290003C008AB3042A42D02868082A51D0D4E9F5
:1012A0000023E168066A26F480560662C669076A6A
:1012B00026F4407646EA03234FF6FF7606EA01312C
:1012C00023F4704319434FF4005627F4005306EA01
:1012D00002321A43C16102622868C16921F4406187
:1012E000C1612868C169A26841EA0221C161002088
:1012F00085F83C00BDE8F08101E00220FAE7D4E97E
:101300000012E368286800F03DFA2868816921F03E
:101310000C01816128688169A26811430FE0D4E95A
:101320000012E368286800F06BFA2868816921F4EC
:101330004061816128688169A26841EA0221816176
:10134000D5E7D4E90027267B016A21F48071016288
:10135000C169036A21F00301394321F0F007310725
:101360004FF4007647EA116123F4007306EA022283
:101370001A43C16102622868C16921F00C01C16190
:101380002868C169A2681143B0E710B5040003D012
:1013900094F83D0010B107E0012010BD002084F852
:1013A0003C00204600F01EF8022084F83D00211D7C
:1013B000206800F08DF9012084F8460084F83E0092
:1013C00084F83F0084F8400084F8410084F842002B
:1013D00084F8430084F8440084F8450084F83D0014
:1013E000002010BD704770B50446006801694FF0D9
:1013F0000005C943890715D4C168C943890711D4B9
:10140000E91E01610120207720688069800720465D
:1014100002D0FFF732FF04E000F098F8204600F019
:1014200096F8257720680169C943490717D4C16830
:10143000C943490713D46FF00401016102202077EA
:101440002068806910F4407F204602D0FFF715FF26
:1014500004E000F07BF8204600F079F8257720685A
:101460000169C943090716D4C168C943090712D4E1
:101470006FF008010161042020772068C0698007AF
:10148000204602D0FFF7F9FE04E000F05FF82046A6
:1014900000F05DF8257720680169C943C90617D4B3
:1014A000C168C943C90613D46FF010010161082057
:1014B00020772068C06910F4407F204602D0FFF7F3
:1014C000DCFE04E000F042F8204600F040F825770A
:1014D00020680169C943C90708D1C168C943C90760
:1014E00004D1891E0161204600F032F820680169AC
:1014F000C943090609D4C168C943090605D46FF078
:10150000800101612046FFF78DFD20680169C94314
:10151000490609D4C168C943490605D46FF04001A2
:101520000161204600F015F820680169C943890669
:101530000BD4C168C943890607D46FF0200101614B
:101540002046BDE87040FFF76EBD70BD7047704724
:1015500070477047FEE7000030B585B0002418489A
:101560000094019402940394816941F02001816107
:10157000816901F020010491816941F004018161D8
:101580008069104D00F00400049000220A212846D2
:10159000FFF72FFA0A2000900120CDE90104022074
:1015A000039069462846FFF72FF91020CDE9000483
:1015B000694605480294FFF727F905B030BD0000E1
:1015C0000010024000080140000C014010B58AB034
:1015D00000242348049405940694079408940994DD
:1015E0000094019402941D49039401602021C0E9F4
:1015F00001144FF6FF71C0E9031444618461FFF7E1
:1016000047FD08B172B6FEE74FF48050049004A97C
:101610001348FFF7C7FD08B172B6FEE71048FFF7A1
:10162000B4FE08B172B6FEE7089408A90C48099404
:10163000FFF7FAFC08B172B6FEE70120CDE90040E1
:1016400002940022694606480394FFF717FE00281B
:1016500001D072B6FEE70AB010BD0000002C0140B8
:1016600038000020FEE7FEE770477047FFF7CCB96F
:1016700010B590B028216846FEF76DFD14210AA828
:10168000FEF769FD02200090012004901020002444
:10169000059007946846FFF721FB08B172B6FEE794
:1016A0000F20CDE90A040C940D9400210AA80E9491
:1016B000FFF742FA002801D072B6FEE710B010BD65
:1016C000704700000148FFF78EBE00003800002080
:1016D000F0B50268164B174C174D4FF080479842F3
:1016E00005D0B84203D0A04201D0A84203D122F0D5
:1016F00070064A683243984205D0B84203D0A042EF
:1017000001D0A84203D122F44074CA6822434C6934
:1017100022F08002224302608A68C2620A68826202
:10172000984201D10969016301214161F0BD0000C6
:10173000002C0140000400400008004010B58468FF
:1017400042EA032224F47F440A432243826010BD0C
:10175000826822F070020A4342F0070181607047FC
:1017600010B5036A046A24F001040462846924F059
:10177000F00444EA021423F00A020A43846102627C
:1017800010BD000070B5046A24F00104046284698D
:10179000056A0F4EB04208D0B0F1804F05D00D4E13
:1017A000B04202D00C4EB04203D124F003041443E3
:1017B00001E044F001041A0724F0F00444EA126244
:1017C00025F00A0301F00A0119438261016270BD2C
:1017D000002C0140000400400008004010B5036ADE
:1017E00023F0100303628369046A23F4704343EA1D
:1017F000023224F0A00343EA01118261016210BDAC
:1018000030B5046A24F0100404628469056A24F483
:10181000407444EA022222F470444FF6FF7202EA56
:1018200003322243A02425F0A00304EA0111194346
:101830008261016230BDFEE737B514460846064BAB
:101840006A46214600F0ECF804466946002000F0A4
:101850006AFC20463EBD0000272100080907090E4A
:10186000002804DB00F1E02080F80014704700F04D
:101870000F0000F1E02080F8141D704702E008C856
:10188000121F08C1002AFAD170477047002001E0FA
:1018900001C1121F002AFBD1704700002DE9FF5F34
:1018A00082B00021DDE90430020DDDF840B00343D1
:1018B00018D044F61050A2F2FF324243151411988A
:1018C00001281FD0A5EB0B00401C5FEA000A4FF077
:1018D00000064E4FDFF83891B046504615D5CAF194
:1018E000000413E0119801244AA3012801D16FEAF2
:1018F0000B010298119AC0E90031C0E9024206B01A
:10190000BDE8F09FCBF10000DFE704460021404A2C
:10191000491842EB0450CDE9001012E0E00707D06F
:1019200032463B4640464946FEF727FC80468946FC
:1019300032463B4610461946FEF71FFC06460F4648
:101940006410002CEAD1DDE90401DDE90023BAF1DD
:10195000000F06DAFEF711FC42464B46FEF70DFC7F
:1019600005E0FEF77CFC42464B46FEF778FC044659
:101970000E460022284BFEF7AFFE03D84FF0FF3093
:10198000014607E00022254B20463146FEF7E5FDE3
:10199000FEF78AFE102409E0002C0ADB0A2200234D
:1019A000FEF716FD039B30321A55641E50EA010201
:1019B000F2D1641C039AC4F111031444119A012A50
:1019C00003D0012208430DD10AE0084304D00020CF
:1019D0004FF0110B119072E7A3EB0B056D1E0DE09C
:1019E0005B4504DD4FF0000205F1010504E003DA78
:1019F0004FF00002A5F10105002AECD002981199E0
:101A0000C0E90231C0E9004579E700000000144058
:101A10000000F03F300000000000F0430000E03F15
:101A20002DE9FF4F95B09A46884606460025EEE11F
:101A3000252877D100242746F94A0121039400E0A4
:101A4000044316F8013F203B01FA03F01042F7D19E
:101A500030782A2811D06FF02F033078A0F13002AF
:101A6000092A16D8039A44F0020402EB820203EB1F
:101A700042021044761C0390EFE758F8042B0392BF
:101A8000002A03DA504244F40054039044F0020464
:101A9000761C30782E2816D116F8010F44F0040475
:101AA0002A280DD06FF02F023078A0F13003092BD7
:101AB00009D807EB870302EB4303C718761CF3E74B
:101AC00058F8047B761C30786C280FD006DC4C2844
:101AD00017D068280DD06A2814D104E0742810D0DB
:101AE0007A280FD10DE044F400140AE044F4801485
:101AF00001E044F440147278824202D104F580146B
:101B0000761C761C307866280BD013DC582877D0EA
:101B100009DC002875D04528F6D04628F4D047289F
:101B20001AD193E118E0632835D0642879D065286C
:101B300012D18BE1702873D008DC6728F1D06928B6
:101B40006FD06E280DD06F2806D1ACE073282CD052
:101B5000752874D0782853D05246179990476D1C39
:101B600054E1C4F30250022809D003280DD0D8F85C
:101B7000001004280DD00D6008F1040846E1D8F8E3
:101B80000010EA17C1E90052F6E7D8F800100D80FE
:101B9000F2E70D70F0E718F8041B8DF80010002034
:101BA0008DF80100EB46012003E058F804BB4FF02C
:101BB000FF3061074FF0000102D40DE009F101018F
:101BC0008946B9420FDA8145F8DB1BF80910002974
:101BD000F4D108E009F1010189468142FADB1BF8E2
:101BE00009100029F6D103985346A0EB09072146B6
:101BF0003846179A00F080FA284400EB090507E000
:101C000044E008E10DE01BF8010B5246179990479C
:101C1000B9F10109F7D2534621463846179AF2E046
:101C200039E00A21C4F302524FF0000B0091022A5E
:101C300006D058F8040BC117032A09D00AE023E0A4
:101C400008F1070020F00702F2E80201904605E0E3
:101C500000B2C117042A01D140B2C117002906DA27
:101C60000A460021404261EB02012D2202E02205DA
:101C700004D52B228DF80420012203E0E20701D0D5
:101C80002022F7E7914657E00A2100E010214FF0AB
:101C9000000B00910BE010214FF0000B44F0040406
:101CA0000827009103E008204FF0000B0090C4F3D8
:101CB0000252022A05D058F8040B0021032A08D04A
:101CC00008E008F1070020F00702F2E80201904660
:101CD00003E080B2042A00D1C0B24FF0000922070D
:101CE0002AD53278702A07D0DDF800C08CF0100CAD
:101CF0005CEA0B0C05D00EE040228DF80420012296
:101D000008E050EA010306D030238DF804308DF846
:101D1000052002229146009B83F0080353EA0B033F
:101D20000AD150EA010201D1620705D530228DF8AF
:101D300004204FF001097F1E3278582A04D039A2BE
:101D40000C920CAA02920BE03BA2F9E75B46009AC8
:101D5000FEF73EFB0C9B9B5C029A521E0292137094
:101D600050EA0102F2D1029804A9081A00F1200BEE
:101D7000600702D524F4803400E001275F4502DDCE
:101D8000A7EB0B0000E0002000EB0B010090039894
:101D90004944401A0390E00306D453462146179A5B
:101DA000039800F0A9F90544002706E001A852466F
:101DB000C05D179990476D1C7F1C4F45F6DBE00313
:101DC0000CD553462146179A039800F095F905441F
:101DD00004E030205246179990476D1C0099481E28
:101DE00000900029F5DC08E002980299524600783C
:101DF000491C0291179990476D1CBBF10001ABF192
:101E0000010BF1DC5BE100F065F90544761C3078EC
:101E100000287FF40DAE19B02846BDE8F08F000011
:101E200009280100303132333435363738396162B0
:101E30006364656600000000303132333435363774
:101E4000383941424344454600000000600700D451
:101E5000062708F1070020F00700F0E8022380467B
:101E600003F0004C5FEA0C0001D097A009E02005C8
:101E700001D596A005E0E00701D095A001E0AFF202
:101E80004C001390307823F0004365280CD006DC1A
:101E9000452809D046281DD047287FD13BE0662839
:101EA00018D067287AD136E00021112F01DB1120EC
:101EB00000E0781CCDE9000104A90CA8FFF7EEFCB6
:101EC000DDE90D010C9A4FF0000B07F101091092AA
:101ED00000914EE04FF000400097CDE9011004A9B9
:101EE0000CA8FFF7DBFCDDE90D020C9B0F994FF00E
:101EF000000B91461093009211B9791C00EB010977
:101F0000B7EB090003D4C0F1FF3B07F10109A9EBCE
:101F10000700019042E0012F00DA01270021112F74
:101F200001DD112000E03846CDE9000104A90CA82C
:101F3000FFF7B4FCDDE90D010C9A00914FF0000BA6
:101F4000B946109221070FD4009A4A4503DA914608
:101F500001E0A9F10109B9F1010F05DD109AA9F11C
:101F60000101515C3029F4D0B84202DA10F1040FBB
:101F700003DA0121CDE9011010E0002803DC8344DD
:101F8000A9EB000102E0411C494500DD8946A0EBB8
:101F90000B00401C01904FF000400290200705D438
:101FA0000198484502DB4FF0FF30019000208DF88A
:101FB0004B0002980DF14B07B0F1004F25D00220E5
:101FC0000C902B200D90029800280CDA40420290D1
:101FD0002D200D9007E00A210298FEF7E3F9303139
:101FE000029007F8011D0C99481E0C900029F2DCA4
:101FF00002980028EFD1791E0D980870307800F013
:10200000200040F0450007F8020D11A8C01BC01DBC
:1020100002901398007800B1012000EB09010198AB
:1020200001EBE071029801440398401A401E0390AE
:10203000E00306D453462146179A039800F05CF853
:1020400005441398007818B15246179990476D1CB3
:10205000E00323D553462146179A039800F04CF825
:1020600005441BE0BBF1000F07DB0098584504DD79
:102070001098179910F80B0001E01799302052467C
:10208000904701980BF1010B401E05F101050190ED
:1020900004D12E205246179990476D1CB9F10001CA
:1020A000A9F10109DEDC05E017F8010B524617998A
:1020B00090476D1C0299481E02900029F4DC53469B
:1020C0002146179A03989EE62D0000002B00000081
:1020D000200000002DE9F041044600251E46174669
:1020E000880404D405E039462020B0476D1C641EE6
:1020F000F9D52846BDE8F0812DE9F04104460025D8
:102100001E469046C80301D5302700E020278804EA
:1021100004D505E041463846B0476D1C641EF9D52C
:102120002846BDE8F0810A68531C0B6010707047A8
:10213000044900220B685A6209684A6A8242FCD349
:1021400070470000380000200021084600F08AB8DF
:102150000021012000F086B810B5094C0122E18869
:10216000A069FEF746FC1420FEF724FB0022E1885C
:10217000A069FEF73EFCBDE810403C20FEF71ABB0C
:10218000000000202DE9F05F07460AA81C4690E8F1
:10219000000F15460E46FEF7EBFA1D480021876139
:1021A0008680C5800462A0F81080A0F81290A0F884
:1021B00014A0A0F816B00170282181701420FEF739
:1021C00011FB032000F0C6F80520FEF70BFB0320EF
:1021D00000F0C0F80120FEF705FB032000F0BAF87C
:1021E0000120FEF7FFFA022000F0B4F80120FEF70C
:1021F000F9FA282000F0D2F80F2000F0CFF80120E3
:1022000000F0CCF8BDE8F05F0320FEF7EBBA000069
:10221000000000200FB470B586B00BAA68460A997A
:10222000FFF70AFB00246E4608E0355D012000F050
:1022300011F8284600F022F8641CE4B26846FDF765
:1022400095FFA04201D9102CEFD306B070BC5DF809
:1022500014FB00000246024881888069FEF7C9BB72
:102260000000002001F00F0120B141F0C00000BFCC
:1022700000F094B841F08000FAE700002DE9F84F33
:102280000209334C02F0080302F0040B217802F03B
:10229000020902F0010700F0080A00F0040600F04D
:1022A000020500F00108009321B342462189E0694C
:1022B000FEF79FFB2A466189E069FEF79AFB3246EA
:1022C000A189E069FEF795FB5246E189E069FEF7D6
:1022D00090FB3A46218A206AFEF78BFB4A46618AC8
:1022E000206AFEF786FB5A46A18A206AFEF781FB28
:1022F000009A25E03A46218A206AFEF77AFB4A4690
:10230000618A206AFEF775FB5A46A18A206AFEF7A9
:1023100070FBE18A009A206AFEF76BFBFFF71CFF57
:102320004246218A206AFEF764FB2A46618A206AB7
:10233000FEF75FFB3246A18A206AFEF75AFB52463F
:10234000E18A206AFEF755FBBDE8F84FFFF704BFAE
:102350000000002070B505460020FFF77BFF0E4C03
:1023600005F00102218A206AFEF743FB05F0020214
:10237000618A206AFEF73DFB05F00402A18A206A0B
:10238000FEF737FB05F00802E18A206AFEF731FB11
:10239000BDE87040FFF7E0BE0000002010B5044625
:1023A0000020FFF757FF2046BDE81040FFF766BF4B
:1023B0001FB5FEF731FBFFF75BF9FFF7CDF8FFF72D
:1023C00005F91E48FEF7C6FE20231022082104202E
:1023D0008DE80F001A48022203460121FFF7D2FEC2
:1023E00018A0FFF717FF4FF47A752846FEF7FAF9A1
:1023F0004FF03336164F174C00F036F8FDF7A3FFB9
:1024000032463B46FDF7B9FEFDF7B0FF2060C8201D
:10241000FEF7E8F9FFF798FE2068FDF794FF024603
:102420000B460DA0FFF7F6FE2846FEF7DBF9FFF797
:102430008FFE0CA0FFF7EEFEDEE700003800002064
:1024400000080140426952205345594C4552000052
:1024500033330B402400002064697374616E63653C
:102460003D000000636D000070B5184C002501228E
:1024700008212046FEF7BDFA0A20FFF759FE002288
:1024800008212046FEF7B5FA10212046FEF7ACFAE7
:102490000028F9D003E001206D1CFFF749FE102150
:1024A0002046FEF7A1FA0028F5D12846FDF746FFA1
:1024B000FDF749FF064A074BFDF7D1FEFDF756FF32
:1024C00004463220FEF78EF9204670BD000C014014
:1024D0009A99999999193D40000000000000000068
:1024E000010203040607080908250008000000206F
:1024F000380000007C180008402500083800002043
:10250000480400008C180008010F3800000000008B
:1025100000000000000000000000000000000000BB
:1025200000000000000000000000000000000000AB
:102530000100000010000000000000000024F40072
:04000005080000ED02
:00000001FF
